:1000000000200010150100008D0100008D0100008E
:1000100000000000000000000000000000000000E0
:100020000000000000000000000000008D01000042
:1000300000000000000000008D0100008D010000A4
:100040008D0100008D0100008D0100008D01000078
:100050008D0100008D0100008D0100008D01000068
:100060008D0100008D0100008D0100008D01000058
:100070008D0100008D0100008D0100008D01000048
:100080008D0100008D0100008D0100008D01000038
:100090008D0100008D0100008D0100008D01000028
:1000A0008D0100008D0100008D0100008D01000018
:1000B0008D0100008D0100008D0100008D01000008
:1000C00080B500AF0D4B1A680C4B80218A431A6033
:1000D0000B4B00221A600B4B01221A600A4B0422C0
:1000E0001A60084B01221A60084B03221A60084B61
:1000F00001221A60C046BD4680BDC0463882044019
:1001000040800440448004400880044070800440E3
:100110007480044080B584B000AFFFF7D1FF164B68
:10012000FB60164BBB60164A144BD31A7B6007E08A
:10013000FA68531CFB60BB68591CB96012781A70CE
:100140007B685A1E7A60002BF2D10E4BBB600E4AC0
:100150000C4BD31A7B6004E0BB685A1CBA600022C7
:100160001A707B685A1E7A60002BF5D100F02FF8C8
:10017000C046BD4604B080BD28020000000000104B
:1001800000000010000000100000001080B500AF5B
:10019000FEE7C04680B500AF044B1A68034B8021D0
:1001A000C9010A431A60C046BD4680BD002000A0B8
:1001B00080B582B000AF7860C0467B685A1E7A6016
:1001C000002BFAD1C046C046BD4602B080BD80B506
:1001D00000AFFFF7DFFF0E4B03221A600D4B6422C6
:1001E0001A600D4B01221A600C4BB82252031A60A0
:1001F0000B4B01221A700B4B1800FFF7D9FF084B6D
:1002000000221A70074B1800FFF7D2FFF0E7C04634
:10021000E0800440E8800440E48004402CC00040BA
:080220000E0000A080841E0006
:00000001FF
