:10000000020003758108120140E582600302006F5F
:10001000780079007A007B007C007D00EC4D601C4C
:1000200088828983E493A3A882A9838A828B83F040
:10003000A3AA82AB831CBCFFE31D80E07582007520
:1000400083007C007D00EC4D600AE4F0A31CBCFF43
:10005000F51D80F27582007583007C007D00EC4DFB
:10006000600AE4F0A31CBCFFF51D80F212007412BC
:1000700000A880FE2290200075F00012010BFAA368
:1000800012010BFB43034090200075F000EA1201BF
:1000900027A3EB020127AA82AB838A048B051ABA35
:1000A000FF011BEC4D70F3221200759080E075F09B
:1000B000047403120127A3E41201279080E875F06D
:1000C000047464120127A3E41201279080E475F000
:1000D000047401120127A3E412012790C02CE4F557
:1000E000F0120127A3E412012790000EE4F5F0744A
:1000F0000112012790848012009690000EE4F5F022
:1001000012012790848012009680DE20F71430F6CA
:10011000148883A88220F507E6A88375830022E26D
:1001200080F7E49322E02220F71030F6118883A8AC
:100130008220F507F6A88375830022F280F7F0226B
:100140007582002200000000000000000000000096
:00000001FF
