:1000000000200010150100008D0100009301000088
:1000100000000000000000000000000000000000E0
:100020000000000000000000000000008D01000042
:1000300000000000000000008D0100008D010000A4
:100040008D0100008D0100008D010000690300009A
:100050008D0100008D0100008D0100008D01000068
:100060008D0100008D0100008D0100008D01000058
:100070008D0100008D0100008D0100008D01000048
:100080008D0100008D0100008D0100008D01000038
:100090008D0100008D0100008D0100008D01000028
:1000A0008D0100008D0100008D0100008D01000018
:1000B0008D0100008D0100008D0100008D01000008
:1000C00080B500AF0D4B1A680C4B80218A431A6033
:1000D0000B4B00221A600B4B01221A600A4B0422C0
:1000E0001A60084B01221A60084B03221A60084B61
:1000F00001221A60C046BD4680BDC0463882044019
:1001000040800440448004400880044070800440E3
:100110007480044080B584B000AFFFF7D1FF164B68
:10012000FB60164BBB60164A144BD31A7B6007E08A
:10013000FA68531CFB60BB68591CB96012781A70CE
:100140007B685A1E7A60002BF2D10E4BBB600E4AC0
:100150000C4BD31A7B6004E0BB685A1CBA600022C7
:100160001A707B685A1E7A60002BF5D100F04BF8AC
:10017000C046BD4604B080BD9723000000000010BB
:100180006800001068000010A400001080B500AFE7
:10019000FEE780B500AF024B180000F0D7F9FEE78C
:1001A0004822000080B500AF0A4B0B4A1A600B4B87
:1001B00000221A600A4B05221A60C046084B1A68D2
:1001C00080235B021340F9D0054B00221A60C04621
:1001D000BD4680BD14E000E05FEA000018E000E0EA
:1001E00010E000E080B582B000AF786001E0FFF77A
:1001F000D9FF7B685A1E7A60002BF8D1C046C046F2
:10020000BD4602B080BD80B500AFE1235B0218009F
:1002100000F032F862B6134B1A68124B02218A437F
:100220001A60FA235B001800FFF7DCFF0E4B180082
:1002300001F0A2F80D4B1B78DBB2002B01D031236B
:1002400000E030230A4A1900100001F009F8094BB8
:100250001B689B68180000F089FD6420FFF7C2FF4F
:10026000E8E7C046002000A060220000010000A0D6
:10027000B82200000400001080B582B000AF7860A2
:100280002B4B1A682A4B08218A431A60294B1A689B
:10029000284B8021C9010A431A60254B1A68244B58
:1002A00008210A431A60244B1A68234B08210A4389
:1002B0001A60224B1A68214B01210A431A60204B15
:1002C0001A681F4BFF218A431A601D4B1A681C4B8A
:1002D00004210A431A601A4B1A68194B19490A403B
:1002E0001A60174A164B12681A60174B01221A60DF
:1002F000164B00221A60164B00221A607B681B0105
:100300001900144800F0E6FA03001A00124B1A60B4
:10031000124B01221A60124B00221A60114B1A680C
:10032000104B05210A431A60C046BD4602B080BD8D
:10033000048004408080044000E100E0C0C100402F
:1003400000C00040FF00FFFF94800440F0800440A4
:10035000F480044000879303204006400C40064090
:10036000044006400040064080B582B000AF094B13
:100370001B687B607B680122134007D0064B1B681B
:10038000DAB2064B1100180000F00AF8C046BD466C
:1003900002B080BD244006401440064068000010B2
:1003A00080B582B000AF78600A00FB1C1A707B68D1
:1003B0009B680F2B14D872B67B689B685A1C7B68AD
:1003C0009A607B681B687A68D318FA1C12781A73D3
:1003D0007B681B6801330F221A407B681A6062B683
:1003E000C046BD4602B080BD80B584B000AF786025
:1003F0000F217B1800221A707B689B68002B14D099
:1004000072B67B689B685A1E7B689A607B685A68E4
:100410007B1879688A18127B1A707B685B680133D5
:100420000F221A407B685A6062B60F23FB181B78B4
:100430001800BD4604B080BD80B500AF024B9B687C
:100440001800BD4680BDC0466800001080B584B06D
:1004500000AF0200FB1D1A700A4BFB60C046FB6830
:100460005A1EFA60002B04D0074B1B68042213406D
:10047000F5D0064BFA1D12781A60C046BD4604B08E
:1004800080BDC046FFFF0000084006401C400640FB
:1004900080B582B000AF786007E07B681B781800F9
:1004A000FFF7D4FF7B6801337B607B681B78002BF0
:1004B000F3D1C046C046BD4602B080BD80B500AF96
:1004C000034B1800FFF790FF03001800BD4680BDE6
:1004D00068000010B0B584B000AF786039600023C8
:1004E000FB600B23FB1800221A7018E00B257C1907
:1004F000FFF7E4FF030023702C003B191B78002B4F
:10050000F4D03B191B781800FFF7A0FFFB685A1CBA
:10051000FA601A007B689B183A1912781A703B68C7
:10052000013BFA689A4204DA0B23FB181B780A2B6A
:10053000DCD1FB68002B04DDFB687A68D31800224D
:100540001A70FB681800BD4604B0B0BD80B582B01B
:1005500000AF78607B681800FFF79AFF034B180024
:10056000FFF796FFC046BD4602B080BDCC2200001A
:1005700090B595B000AFF860B9607A603823FB1889
:10058000224A13CA13C31168196012791A7114230D
:10059000FB182022002199541F23FB641BE0FB68F9
:1005A000B968180000F07CFA0B001900FB6C5A1EA9
:1005B000FA643822BA18515C1422BA18D154B968B6
:1005C000F86800F087F90300FB607B68002B02D01D
:1005D0007B68013B7B60FB68DA17D31ADB0FDAB26A
:1005E0007B68D917CB1ADB0FDBB21343DBB2002BCE
:1005F000D5D1FB6C01331422BA18D3181800FFF7B9
:1006000047FFC046BD4615B090BDC046D022000091
:1006100080B582B000AF7860FEE780B582B000AFF1
:10062000786001235B421800BD4602B080BD80B5F2
:1006300084B000AFF860B9607A60044B0C221A6095
:1006400001235B421800BD4604B080BDA00000102D
:1006500080B500AF034B0B221A6001235B421800E8
:10066000BD4680BDA000001080B582B000AF7860AC
:1006700039603B68802292015A6000231800BD4611
:1006800002B080BD80B500AF01231800BD4680BD1B
:1006900080B582B000AF78607B68022B01D801235F
:1006A00003E0044B09221A6000231800BD4602B083
:1006B00080BDC046A000001080B582B000AF786059
:1006C0003960044B16221A6001235B421800BD46B4
:1006D00002B080BDA000001080B582B000AF78608D
:1006E0003960044B1F221A6001235B421800BD468B
:1006F00002B080BDA000001080B584B000AFF860EB
:10070000B9607A6000231800BD4604B080BD80B592
:1007100086B000AF7860164B7B61164B3B61164B81
:100720001B68002B02D1144B7A691A60124B1B68AC
:10073000FB603B69BB60104B1A687B68D318BA68D2
:100740009A4209D20D4B1800FFF700FF0C4B0C2208
:100750001A6001235B4206E0074B1A687B68D218D7
:10076000054B1A60FB681800BD4606B080BDC04648
:10077000001000100018001088000010E422000093
:10078000A0000010B0B588B000AFF860B9607A6022
:100790000023BB61FB68002B19D10023FB6111E032
:1007A00017257C19FFF78AFE03002370BB685A1CCB
:1007B000BA607A1912781A70BB690133BB61FB69A0
:1007C0000133FB61FA697B689A42E9DB05E0054B7E
:1007D00009221A6001235B4200E0BB691800BD4694
:1007E00008B0B0BDA000001080B582B000AF786046
:1007F00039603B68802292015A6000231800BD4690
:1008000002B080BD80B582B000AF786001235B424A
:100810001800BD4602B080BD80B582B000AF7860E0
:10082000044B02221A6001235B421800BD4602B04D
:1008300080BDC046A000001080B582B000AF7860D7
:10084000044B0A221A6001235B421800BD4602B025
:1008500080BDC046A000001080B586B000AFF86033
:10086000B9607A60FB68012B03D0FB68022B12D0C1
:1008700023E000237B6109E0BB685A1CBA601B7847
:100880001800FFF7E3FD7B6901337B617A697B68C0
:100890009A42F1DB17E000237B6109E0BB685A1C38
:1008A000BA601B781800FFF7D1FD7B6901337B61CB
:1008B0007A697B689A42F1DB05E0054B09221A60F0
:1008C00001235B4200E07B681800BD4606B080BD96
:1008D000A000001003460B437FD4002243088B4244
:1008E00074D303098B425FD3030A8B4244D3030BB7
:1008F0008B4228D3030C8B420DD3FF22090212BA7C
:10090000030C8B4202D31212090265D0030B8B42F7
:1009100019D300E0090AC30B8B4201D3CB03C01AE1
:100920005241830B8B4201D38B03C01A5241430BBC
:100930008B4201D34B03C01A5241030B8B4201D3AC
:100940000B03C01A5241C30A8B4201D3CB02C01A17
:100950005241830A8B4201D38B02C01A5241430A8F
:100960008B4201D34B02C01A5241030A8B4201D37E
:100970000B02C01A5241CDD2C3098B4201D3CB0125
:10098000C01A524183098B4201D38B01C01A5241D4
:1009900043098B4201D34B01C01A524103098B42D8
:1009A00001D30B01C01A5241C3088B4201D3CB00C3
:1009B000C01A524183088B4201D38B00C01A5241A6
:1009C00043088B4201D34B00C01A5241411A00D256
:1009D00001465241104670475DE0CA0F00D04942BF
:1009E000031000D34042534000229C4603098B422F
:1009F0002DD3030A8B4212D3FC22890112BA030AB7
:100A00008B420CD3890192118B4208D38901921138
:100A10008B4204D389013AD0921100E08909C309BD
:100A20008B4201D3CB01C01A524183098B4201D3BF
:100A30008B01C01A524143098B4201D34B01C01AAA
:100A4000524103098B4201D30B01C01A5241C30822
:100A50008B4201D3CB00C01A524183088B4201D391
:100A60008B00C01A5241D9D243088B4201D34B00AC
:100A7000C01A5241411A00D20146634652415B10EE
:100A8000104601D34042002B00D5494270476346CF
:100A90005B1000D3404201B5002000F005F802BD14
:100AA0000029F8D016E770477047C04603B4714676
:100AB000490840004900095E49008E4403BC704764
:100AC000002243088B4274D303098B425FD3030A8D
:100AD0008B4244D3030B8B4228D3030C8B420DD3A0
:100AE000FF22090212BA030C8B4202D3121209022E
:100AF00065D0030B8B4219D300E0090AC30B8B426C
:100B000001D3CB03C01A5241830B8B4201D38B0319
:100B1000C01A5241430B8B4201D34B03C01A5241BE
:100B2000030B8B4201D30B03C01A5241C30A8B4201
:100B300001D3CB02C01A5241830A8B4201D38B02EC
:100B4000C01A5241430A8B4201D34B02C01A524190
:100B5000030A8B4201D30B02C01A5241CDD2C30902
:100B60008B4201D3CB01C01A524183098B4201D37E
:100B70008B01C01A524143098B4201D34B01C01A69
:100B8000524103098B4201D30B01C01A5241C308E1
:100B90008B4201D3CB00C01A524183088B4201D350
:100BA0008B00C01A524143088B4201D34B00C01A3C
:100BB0005241411A00D20146524110467047FFE7A8
:100BC00001B50020FFF770FF02BDC0460029F7D035
:100BD00076E77047F7B58B8905000C001A075FD4DC
:100BE0004A68002A04DC0A6C002A01DC0020FEBDF1
:100BF000E76A002FFAD0002280212E682A601A00AE
:100C000049010A400B4234D0606DA3895B0706D5C9
:100C10006368C01A636B002B01D0236CC01A0200FA
:100C2000216A00232800E76AB847A189431C06D13E
:100C30002B681D2B31D82C4ADA40D3072DD5002341
:100C4000636023692360CB0405D5431C02D12B6864
:100C5000002B00D16065616B2E600029C6D0230097
:100C60004433994202D0280000F004FA0020606367
:100C7000BDE701232800216AB847431CC5D12B6872
:100C8000002BC2D01D2B01D0162B01D12E60ADE759
:100C90004023A2891343A381A9E740230B43FAE72A
:100CA0000F69002FA2D00A680F60D21B01920022A8
:100CB0009B0700D14A69A260019B002B00DC95E7ED
:100CC0003A002800019B216AA66AB047002806DC8A
:100CD00040230120A28940421343A38187E7019B5F
:100CE0003F181B1A0193E7E7010040200B6970B51C
:100CF00005000C00002B02D10025280070BD002843
:100D000004D08369002B01D100F0C8F8144B9C4239
:100D10001BD16C680C22A35E002BEDD0626ED20753
:100D200004D49B0502D4A06D00F094F928002100A2
:100D3000FFF750FF636E0500DB07DED4A3899B0538
:100D4000DBD4A06D00F08CF9D7E7064B9C4201D1B3
:100D5000AC68DFE7044B9C42DCD1EC68DAE7C046C4
:100D6000202300004023000000230000010010B5F4
:100D7000002805D1054B0649186800F046F910BD5A
:100D8000044B1868FFF7B2FFF9E7C0466023000084
:100D9000ED0C000004000010002310B504000360F7
:100DA00043608360818143661900C28103614361AE
:100DB000836108225C3000F054F9054B24626362C1
:100DC000044BA362044BE362044B236310BDC04693
:100DD00099140000C5140000FD140000291500003E
:100DE00010B5024900F011F910BDC046ED0C00002D
:100DF000436E10B5DB0705D483899B0502D4806D53
:100E000000F028F9002010BD436E10B5DB0705D4B3
:100E100083899B0502D4806D00F022F9002010BD6B
:100E200070B568254A1E55430E002900743100F044
:100E30008DF9041E08D000212A00016046600C30A4
:100E4000A060683200F00DF9200070BD10B5024BB3
:100E50001868FFF7C5FF10BD6023000010B50248F9
:100E600000F0F8F810BDC0469200001010B502481E
:100E700000F0F6F810BDC0469200001010B5024810
:100E800000F0E8F810BDC0469300001010B502480D
:100E900000F0E6F810BDC0469300001013B5040042
:100EA000FFF7ECFFA369002B02D0FFF7EFFF13BDA4
:100EB000A364E3642365134B134A1B68A262019386
:100EC000A34201D10123A361200000F01FF860605C
:100ED000200000F01BF8A060200000F017F80022AE
:100EE0000421E0606068FFF757FF01220921A06834
:100EF000FFF752FF02221221E068FFF74DFF0123A6
:100F0000A361D2E760230000E10D0000F8B50700FF
:100F1000FFF7A4FF1F4B1E68B369002B02D13000FE
:100F2000FFF7BCFF4836B4687368013B04D53368EB
:100F3000002B22D03668F6E70C22A55E002D1AD1D0
:100F40002000154B5830E360656600F07FF8FFF72E
:100F50008DFF2000082229002560A56065602561BD
:100F60006561A5615C3000F07CF86563A563A564EC
:100F7000E5642000F8BD6834D7E704213800FFF7A6
:100F80004FFF041E3060D5D1FFF770FF0C233B608C
:100F9000EFE7C046602300000100FFFF10B5FFF738
:100FA0005DFF034B0349186800F014F810BDC046FC
:100FB00004000010F10D000010B5044B044918683E
:100FC00000F008F8FFF752FF10BDC0460400001003
:100FD000090E0000F7B54830040000260191A5680D
:100FE0006768013F04D52468002CF8D13000FEBDAD
:100FF000AB89012B07D90E22AB5E013303D0280049
:10100000019B984706436835EBE7F7B504000600F7
:101010000027019148346368A5680093009B013B59
:10102000009304D52468002CF5D13800FEBDAB89AF
:10103000012B08D90E22AB5E013304D02900300009
:10104000019B984707436835E8E77047704770474A
:101050007047704770470120704701207047704704
:10106000704703008218934200D170471970013312
:10107000F9E7000070B50500002910D00C1F2368A7
:10108000002B00DAE418280000F0D2FB1D4A136898
:10109000002B05D163601460280000F0D1FB70BD07
:1010A000A34208D9216860188342F3D118685B68AD
:1010B00041182160EEE71A005B68002B01D0A342C3
:1010C000F9D911685018A0420BD12068091850189E
:1010D00011608342E0D118685B6841181160536069
:1010E000DAE7A04202D90C232B60D5E7216860180B
:1010F000834203D118685B684118216063605460C3
:10110000CAE7C0469800001070B50F4E0D00316858
:101110000400002902D100F0ADF930602900200060
:1011200000F0A8F9431C0AD00323C51C9D43A84224
:1011300007D0291A200000F09DF9431C01D1012598
:101140006D42280070BDC0469C000010F7B5032218
:10115000CB1C9343083306001F000C2B32D20C2704
:10116000B94231D8300000F063FB324D2B681C00CF
:10117000002C2ED139003000FFF7C6FF0400431CBD
:101180001ED12C682500002D4AD123682900E318C0
:101190003000019300F06EF9019B834243D1236834
:1011A0000337FF1A03239F4308370C2F00D20C2765
:1011B00039003000FFF7A8FF431C34D02368DF1943
:1011C000276013E0002BCBDA0C23002533602800C6
:1011D000FEBD2268D11B20D40B2917D9E219276044
:1011E000A34211D12A60636811605360300025006A
:1011F00000F026FB07220B35231D9543EA1A9D427A
:10120000E5D05B1BA350E2E75A60ECE76268A342BB
:1012100001D12A60EAE75A60E8E723006468A7E79B
:101220002C006D68AFE70C233000336000F008FB42
:10123000CDE7C046980000100EB417B5041E04D0C8
:101240008369002B01D1FFF729FE06AB2000059A28
:10125000A168019300F032FB1EBC08BC03B0184724
:101260000FB40B4B13B51C68002C05D0A369002BE1
:1012700002D12000FFF712FE05AB2000049AA168FE
:10128000019300F01BFB16BC08BC04B01847C04615
:101290000400001070B505000E00002804D083691A
:1012A000002B01D1FFF7FAFDAB69AC68002B02D12E
:1012B0002800FFF7F3FD2D4B9C4222D16C68636E32
:1012C000DB0705D4A3899B0502D4A06DFFF7C2FEFE
:1012D000A3891B0702D52369002B29D121002800EF
:1012E00000F09CF9002823D001256D42636EDB07D6
:1012F00005D4A3899B0502D4A06DFFF7B1FE280099
:1013000070BD1B4B9C4201D1AC68D8E7194B9C4285
:10131000D5D1EC68D3E70136A360002B04DAA269CB
:101320009A4216DC0A2914D023685A1C22601970CC
:10133000A3683178013B0029EDD1A360002B0FDABF
:10134000280022000A3100F0F5F80A25431CCDD10F
:10135000CAE72200280000F0EDF8431CE8D1C3E7FB
:101360000A2523685A1C22601D70BFE72023000055
:10137000402300000023000010B5034B0100186853
:10138000FFF788FF10BDC0460400001070B50D00C7
:1013900009680400002901D0FFF7F8FF29002000A8
:1013A000FFF768FE70BD0000314B70B51B6804008C
:1013B000834249D0436A002B0AD00025DB68AB4248
:1013C00047D1636A1968002902D02000FFF752FE56
:1013D0006169002902D02000FFF74CFE616A0029F4
:1013E00002D02000FFF746FEA16B002902D02000AA
:1013F000FFF740FEE16B002902D02000FFF73AFE24
:10140000216C002902D02000FFF734FEE16D002995
:1014100002D02000FFF72EFEA16D002902D020008F
:10142000FFF728FE616B002902D02000FFF722FEA3
:10143000A369002B08D02000A36A9847A16C00295B
:1014400002D02000FFF7A2FF70BD4959002908D142
:101450000435636AD968802DF7D12000FFF70AFEB2
:10146000AFE70E682000FFF705FE3100EEE7C0464B
:1014700004000010002370B5064D040008002B6026
:10148000FFF745F9431C03D12B68002B00D02360E4
:1014900070BDC046A000001070B50C000E25495F5D
:1014A00000F0D4FC002803DB636D1B18636570BD7E
:1014B000A389024A1340A381F9E7C046FFEFFFFF6B
:1014C00000207047F8B51F008B8905000C0016003E
:1014D000DB0505D50E23C95E0022022300F028F9A2
:1014E000A389054A28001340A38132000E23E15E40
:1014F0003B0000F07FF8F8BDFFEFFFFF70B50C0078
:101500000E25495F00F014F9A389421C03D1054A56
:101510001340A38170BD802252011343A3816065F3
:10152000F8E7C046FFEFFFFF10B50E23C95E00F0DD
:10153000EDF810BDF8B505000E001400002804D029
:101540008369002B01D1FFF7A9FC224B9C422ED1CD
:101550006C68A369A360A3891B0732D52369002B9C
:101560002FD023682269F7B2981A6369F6B28342D2
:1015700005DC21002800FFF7B9FB002827D1A3686C
:101580000130013BA36023685A1C22601F7063690D
:10159000834204D0A389DB0707D50A2E05D1210099
:1015A0002800FFF7A3FB002811D13000F8BD0A4B3B
:1015B0009C4201D1AC68CCE7084B9C42C9D1EC6895
:1015C000C7E72100280000F029F80028C9D001262B
:1015D0007642EAE7202300004023000000230000B9
:1015E00010B5034B0A0001001868FFF7A3FF10BDF8
:1015F0000400001070B50400080011001A00002358
:10160000054D2B60FFF728F9431C03D12B68002BF5
:1016100000D0236070BDC046A0000010374B70B5ED
:101620001D6806000C00002D05D0AB69002B02D10F
:101630002800FFF733FC324B9C420FD16C680C231F
:10164000E25E93B211072DD4D90611D409230120EB
:10165000336037331343A381404270BD294B9C4212
:1016600001D1AC68EBE7284B9C42E8D1EC68E6E797
:101670005B0713D5616B002908D0230044339942DE
:1016800002D03000FFF7F6FC002363632422A38915
:101690009343A38100236360236923600823A28905
:1016A0001343A3812369002B0BD1A0218022A3899E
:1016B000890092000B40934203D02100300000F0DB
:1016C00073F80C22A35E01201A0099B20240034273
:1016D0000FD00022A26062695242A26100202269FA
:1016E0008242BAD10A06B8D540221343A3810138F9
:1016F000B3E7880700D46269A260EFE70400001036
:10170000202300004023000000230000002370B5C8
:10171000064D040008002B60FEF77FFF431C03D139
:101720002B68002B00D0236070BDC046A0000010C5
:1017300070B50400080011001A000023054D2B604D
:10174000FEF7DAFF431C03D12B68002B00D0236087
:1017500070BDC046A000001070B50E001D000E2325
:10176000C95E140096B0002908DA0C22B35E00228C
:101770002A601B0611D48023DB000FE06A4600F0CC
:1017800079FB0028F1DBF02301991B021940054B7E
:10179000C9184B4259412960EDE7402300202360DE
:1017A00016B070BD00E0FFFFF7B502268B8905007B
:1017B0000C00334206D0230047332360236101230A
:1017C0006361F7BD6A4601ABFFF7C6FF00990700EA
:1017D0002800FFF7BBFC002808D10C22A35E9A0565
:1017E000EFD4032293431E43A681E4E70F4BAB6281
:1017F0008023A28920601343A381009B2061636141
:10180000019B002B0DD028000E23E15E00F0ACFC04
:10181000002806D00322A38993431A00012313430F
:10182000A381A0890743A781CBE7C046E10D000053
:1018300010B50248FFF70EFC10BDC0469100001025
:1018400010B50248FFF70CFC10BDC0469100001017
:10185000936810B5013B9360002B04DA9469A342AE
:1018600007DB0A2905D01368581C1060197008009E
:1018700010BDFFF75FFE0100F9E7F8B506000F00A5
:101880001400D518AC4201D1002007E021783A00BD
:101890003000FFF7DDFF0134431CF3D1F8BD93683E
:1018A00010B51400002B02D11800536010BD00F0D9
:1018B000F3FA0023A3606360F8E70000F0B5A1B07D
:1018C00006000C001F000392002804D08369002B3F
:1018D00001D1FFF7E3FA8E4B9C421CD17468636E12
:1018E000DB0705D4A3899B0502D4A06DFFF7B2FBEB
:1018F000A3891B0702D52369002B1DD121003000CD
:10190000FFF78CFE002817D0636EDB070DD5012092
:10191000404221B0F0BD7F4B9C4201D1B468DEE76C
:101920007D4B9C42DBD1F468D9E7A3899B05EED4BB
:10193000A06DFFF795FBEAE7002308AD6B6120334C
:101940006B761033AB760797039F3B78002B01D063
:10195000252B4ED1039BFB1A0593039B9F420DD071
:10196000059B21003000039AFFF787FF431C00D13D
:10197000B5E06A69059B944663446B613B78002B34
:1019800000D1ACE001227B1C0393002352426A6029
:1019900004A9543252182B60EB60AB601370AB6536
:1019A000039B052219785D4800F0F0FB039B5F1C48
:1019B000002820D12A68D30604D5532304A95B1834
:1019C00020211970130704D5532304A95B182B2178
:1019D0001970039B1B782A2B16D00021EB68039FFC
:1019E0003A78781C303A8446092A4FD9002911D117
:1019F00017E00137A9E7494B2A68C01A0123834041
:101A000013432B600397CBE7079B191D1B680791B6
:101A1000002B01DB0B9304E05B42EB6002231343DA
:101A20002B603B782E2B0AD17B782A2B37D1079B52
:101A300002371A1D1B680792002B2DDB0993032226
:101A40003978374800F0A2FB002807D0344B2A68C9
:101A5000C01A40238340134301372B6039787B1C25
:101A6000062230480393297600F090FB002845D0E9
:101A70002D4B002B27D10722079B073393430833B5
:101A800007936B69049A9B186B615DE70A214B43CE
:101A900067469B180939A3E701235B42CEE7002381
:101AA0001A0001376B603978781C3039844609296F
:101AB00003D9002BC3D00992C1E70A235A436746D2
:101AC0005218093BEFE707AB0093220029003000D2
:101AD000164B00E000BF0490049B0133D1D1636E2C
:101AE000DB0705D4A3899B0502D4A06DFFF7B8FAE4
:101AF000A3895B0600D50AE70D980AE707AB0093B8
:101B0000220029003000094B00F08EF8E3E7C046C0
:101B10002023000040230000002300006423000075
:101B20006A2300006E230000000000007B18000004
:101B300010B513000A00010002480068FFF7BEFE5E
:101B400010BDC04604000010F7B5150001938A6867
:101B50000B690C000090934200DA130022002B6006
:101B600043321278002A01D001332B6023689B0690
:101B700002D52B6802332B602268062317001F4012
:101B80001A4227D0230043331B785A1E9341226800
:101B9000920630D4220001990098089E4332B04743
:101BA000431C25D0062320682A68E16800250340ED
:101BB000042B03D18D1AEB43DB171D40A368226968
:101BC000934201DD9B1AED180027BD4220D1002071
:101BD00010E00137E3682A689B1ABB42D2DD22007D
:101BE000012301990098089E1932B047431CF0D197
:101BF00001204042FEBD3020E11843310870210031
:101C00005A1C45310978A218433202331170C1E7DA
:101C10002200012301990098089E1A32B047431C04
:101C2000E6D00137D1E70000F0B58BB006920A008C
:101C300043320793059004920A7E0C00109B782A89
:101C400007D8622A09D8002A00D1C1E0582A00D159
:101C50008CE026004236327022E0100063381528EE
:101C6000F7D8FEF723FF16001F00F6FFF6FFF6FF7A
:101C7000F6FF1F00F6FFF6FFF6FFF6FFA80036009E
:101C80009A00F6FFF6FFB900F6FF3600F6FFF6FF02
:101C90009E0026001A684236111D196013683370C1
:101CA0000123A7E0086819680A1D05060BD50D6811
:101CB0001A60002D03DA2D23049A6D421370614BD4
:101CC0000A2703931BE00D681A604106F1D52DB277
:101CD000EFE70D681968081D18602E0601D50D681C
:101CE00003E06D06FBD50D68ADB2564B0827039394
:101CF0006F2A00D002372300002243331A70636832
:101D0000A360002B03DB0422216891432160002D96
:101D100002D1049E002B0CD0049E28003900FEF74F
:101D200055FF039B013E5B5C33702B0005009F4217
:101D3000F3D9082F09D12368DB0706D56368226928
:101D4000934202DC3023013E3370049B9B1B2361D2
:101D5000079B210000930598069B09AAFFF7F4FE54
:101D6000431C4CD1012040420BB0F0BD45310A70FC
:101D7000344A03921A68216820CA1A60080616D5E8
:101D8000CB0702D52023194321601027002DB2D1A3
:101D9000202322689A432260ADE7202209680A4383
:101DA00022602200782145321170274AE1E7480677
:101DB000E6D5ADB2E4E71A680D68101D49691860F0
:101DC00013682E0601D5196002E06D06FBD5198057
:101DD0000023049E2361BBE71A68111D1960166871
:101DE00000213000626800F0D1F9002801D0801B8A
:101DF0006060636823610023049A1370A8E7236975
:101E0000320006990598079DA847431CAAD023686D
:101E10009B0715D4099BE0689842A5DA1800A3E750
:101E20002200012306990598079E1932B047431CEA
:101E300098D00135E368099A9B1AAB42F0DCE9E7D8
:101E40000025F7E7752300008623000070B5040025
:101E5000080011001A000023054D2B60FEF792FCCC
:101E6000431C03D12B68002B00D0236070BDC046FB
:101E7000A0000010002370B5064D040008001100FA
:101E80002B60FEF7F1FB431C03D12B68002B00D025
:101E9000236070BDA0000010F0B5936887B00C00FF
:101EA00017000390002B02D1002007B0F0BD8B89F2
:101EB0001B0759D50B69002B56D03B6802220293B1
:101EC000A38918001040134275D1012201211A4044
:101ED0000B4200D1ADE0060001900490049B002B62
:101EE00000D116E100280CD11A000A21300000F0C0
:101EF0004DF9049B01330193002802D00130831B6C
:101F00000193019B049A0593934200D9059220689E
:101F100022696369904200D804E1A2689D18059A7D
:101F2000AA4200DCFEE031002A0000F043F92368F9
:101F300021005B1903982360FEF7D8FE002873D1B7
:101F4000019B01205B1B019305D121000398FEF743
:101F5000CDFE002868D1049B76195B1B0493BB68F7
:101F60005D1BBD60BAD19FE721000398FFF756FBC8
:101F70000028A2D00120404297E7029B1B680193F2
:101F8000029B5D6808330293002DF6D0724A2B0045
:101F9000954200D91300019A216A0398A66AB047B6
:101FA000002841DD019B2D1A1B180193BB68181AEC
:101FB000B860E9D178E700231D000193E4E7029BB4
:101FC0001B680493029B5B680193029B0833029396
:101FD000019B002BF3D08023A2899B002068A56879
:101FE0001A4264D0019B9D4238D89023DB001A42EC
:101FF00034D02169431A0320059363695843059B34
:10200000C60F3618019801331B187610B34200D959
:102010001E0053053CD531000398FFF797F8051EC5
:102020000AD10C23039A13604023A2891343A3818E
:10203000A0E704920192CBE7059A216900F0B1F87C
:10204000A389464A1A4080231343A381059B256137
:10205000ED1825606661019DF61AA660019EB542E5
:1020600000D935002A000499206800F0A3F8A3687D
:102070005B1BA36023685D192560049B9B19049377
:10208000019B9B1B0193BB689E1BBE60A0D10BE70D
:102090003200039800F0A1F8051ED7D121690398FA
:1020A000FEF7E8FF8022A3899343A381B9E7236960
:1020B000834203D36669019B9E4217D9019B9D42CF
:1020C00000D91D002A00049900F074F8A368226862
:1020D0005B1B52192E00A3602260002BCDD1210082
:1020E0000398FEF703FE0028C7D09DE7019A1C4B1A
:1020F00010009A4200D91B483100FEF7EBFB330079
:10210000049A4343216A0398A56AA847061EB4DCD3
:102110008AE7029B00201E685B680493029B0833D9
:102120000293DBE6059A934208DCA56A3200216A35
:102130000398A847051E00DD02E775E7059A310000
:1021400000F038F8059AA36815009B1AA36023686D
:102150009B182360F4E6C04600FCFF7F7FFBFFFF77
:10216000FEFFFF7FFFFFFF7F002370B5064D0400D9
:1021700008002B60FEF78CFA431C03D12B68002B60
:1021800000D0236070BDC046A0000010C9B2821804
:10219000904201D10020704703788B42FBD0013080
:1021A000F6E7002310B59A4200D110BDCC5CC454B0
:1021B0000133F8E710B5884202D98B18984203D34F
:1021C000002307E08B5C8354013AFBD210BDCC5C4A
:1021D000C45401339A42FAD1F8E7F7B507000E006C
:1021E0001400002905D11100FEF7B0FF05002800FA
:1021F000FEBD002A03D1FEF73DFF2500F7E700F002
:102200001BF80190844203D835004308A342EED363
:1022100021003800FEF79AFF051EE8D0019B22003E
:102220009C4200D91A0031002800FFF7BAFF3100A4
:102230003800FEF71FFFDAE70B1F1B68181F002B83
:1022400001DA0B58C0187047556E65787065637475
:10225000656420696E746572727570742E0000007A
:102260005075736820627574746F6E207465737432
:1022700020666F7220746865204C50433832342ECB
:102280002020436F6E6E65637420707573682062E2
:102290007574746F6E206265747765656E20504941
:1022A0004F305F31202870696E2031322920616EF5
:1022B0006420474E442E0D0050494F305F31202896
:1022C00070696E203132293D25630D000D0A000032
:1022D000303132333435363738394142434445465C
:1022E000000000004865617020616E6420737461B5
:1022F000636B20636F6C6C6973696F6E0A0000001A
:1023000000000000000000000000000000000000CD
:1023100000000000000000000000000000000000BD
:1023200000000000000000000000000000000000AD
:10233000000000000000000000000000000000009D
:10234000000000000000000000000000000000008D
:10235000000000000000000000000000000000007D
:1023600008000010232D302B2000686C4C0065669F
:1023700067454647003031323334353637383941D6
:1023800042434445460030313233343536373839EC
:0723900061626364656600F1
:102397008400001008000010000000002023000047
:1023A70040230000002300000000000000000000A0
:1023B7000000000000000000000000000000000016
:1023C7000000000000000000000000000000000006
:1023D70000000000000000000000000000000000F6
:1023E70000000000000000000000000000000000E6
:0823F7000000000000000000DE
:04000003000000C039
:00000001FF
