:1000000002000375810D120418E582600302006F7F
:10001000780079007A007B007C007D00EC4D601C4C
:1000200088828983E493A3A882A9838A828B83F040
:10003000A3AA82AB831CBCFFE31D80E07582007520
:1000400083007C007D00EC4D600AE4F0A31CBCFF43
:10005000F51D80F27582007583007C007D00EC4DFB
:10006000600AE4F0A31CBCFFF51D80F212007412BC
:10007000032B80FE22AA828A0A750B00750C00757C
:100080000D0090424075F00FE41203AD85820A85A1
:10009000830B85F00CF50D90C38075F0C9740112C7
:1000A00003ADAA82AB83ACF0FD1ABAFF091BBBFFFC
:1000B000051CBCFF011D90E01475F000EA1203FF5F
:1000C000A3EB1203FF90E018E4F5F01203FFA3E4A2
:1000D0001203FF90E01075F00074051203FFA3E413
:1000E0001203FF90E01075F00012032CA312032CF2
:1000F000E4FAFB4A60ED90E010E4F5F01203FFA390
:10010000E40203FFAA82AB837C007D00C3EC9AED7E
:100110009B502B7E00BE0400501D7582FAC002C0A9
:1001200003C004C005C006120075D006D005D00477
:10013000D003D0020E80DE0CBC00D10D80CE229008
:10014000000DE4F5F074011203FF758228120075AA
:1001500090000DE4F5F00203FFE582FA30E70D9020
:10016000000AE4F5F074011203FF800990000AE42C
:10017000F5F01203FFEA30E60D90000BE4F5F074A1
:10018000011203FF800990000BE4F5F01203FFEA6F
:1001900030E50D900002E4F5F074011203FF8009D0
:1001A000900002E4F5F01203FFEA30E40D90000342
:1001B000E4F5F074011203FF8009900003E4F5F008
:1001C0001203FFC00212013F758228120075D0028F
:1001D000EA30E30D90000AE4F5F074011203FF80A9
:1001E0000990000AE4F5F01203FFEA30E20D9000F6
:1001F0000BE4F5F074011203FF800990000BE4F5A5
:10020000F01203FFEA30E10D900002E4F5F0740112
:100210001203FF8009900002E4F5F01203FFEA30B8
:10022000E00D900003E4F5F074011203FF800990E3
:100230000003E4F5F01203FF02013FAA82900011CF
:10024000E4F5F074011203FF8A8212015990000252
:10025000020104AA82900011E4F5F01203FF8A82E1
:1002600012015990000502010490000DE4F5F0120E
:1002700003FF900014120104758233120253758239
:1002800033120253758232120253758228120253BE
:1002900075820C12025375820112025390001402EF
:1002A0000104AA82AB83ACF07402B508047DC0805F
:1002B000027D808D82C002C003C0041202539000F0
:1002C00005120104D004D003D0027D007E00ED2A87
:1002D000FFEE3BF88C018F82888389F012032CFF9C
:1002E00060208F82C002C003C004C005C006120295
:1002F0003BD006D005D004D003D0020DBD00CF0EF8
:1003000080CCE50960248D028E03C3EA9410EB646F
:100310008094805015758220C002C00312023BD029
:1003200003D0020ABA00E30B80E0222220F7143047
:10033000F6148883A88220F507E6A8837583002237
:10034000E280F7E49322E022FB7A20E4FCFDFEFF4A
:10035000E5822582F582E58333F583E5F033F5F018
:10036000EB33FB4017DAE98042E5822582F582E52E
:100370008333F583E5F033F5F0EB33FBEC33FCED41
:1003800033FDEE33FEEF33FFEC950AED950BEE9562
:100390000CEF950D4013EC950AFCED950BFDEE95D9
:1003A0000CFEEF950DFF438201DABEEB22FBC2D5B6
:1003B00030E715D2D5E4C39582F582E49583F583C1
:1003C000E495F0F5F0E49BFBE50D30E717B2D5E4DA
:1003D000C3950AF50AE4950BF50BE4950CF50CE4CE
:1003E000950DF50DEB12034830D513FBE4C3958250
:1003F000F582E49583F583E495F0F5F0E49B222003
:10040000F71030F6118883A88220F507F6A88375C7
:10041000830022F280F7F0227582002200000000A3
:00000001FF
